:100000000C9462000C948A000C948A000C948A0070
:100010000C948A000C948A000C948A000C948A0038
:100020000C948A000C948A000C948A000C948A0028
:100030000C948A000C948A000C948A000C948A0018
:100040000C94C8050C948A000C9496050C947005C9
:100050000C948A000C948A000C948A000C948A00F8
:100060000C948A000C948A000000000024002700F1
:100070002A0000000000250028002B0000000008D6
:10008000000201000003040700000000000000005F
:1000900000000000230026002900040404040404D6
:1000A0000404020202020202030303030303010227
:1000B00004081020408001020408102001020408F6
:1000C0001020120611241FBECFEFD8E0DEBFCDBF37
:1000D00022E0A4E6B1E001C01D92A132B207E1F72F
:1000E00011E0A0E0B1E0EAEDF8E102C005900D9268
:1000F000A436B107D9F710E0C2E6D0E004C02197DA
:10010000FE010E946A0AC136D107C9F70E945F0644
:100110000C946B0C0C940000CF92DF92EF92FF9244
:10012000CF93DF93B0911102A0E08111AB2F8091AA
:10013000120290E0880F991FAC0140575F4FC090AA
:100140001702D0901802E0901902F0901A0230E0E5
:1001500020E0FA01C591D491E881B90190E080E0F6
:10016000EB23EA130AC02F5F3F4F6C157D058E0508
:100170009F0578F36FEF7FEFCB01DF91CF91FF9079
:10018000EF90DF90CF900895AF92BF92CF92DF9221
:10019000EF92FF920F931F93CF93DF936C017B013C
:1001A0008B01040F151FEB015E01AE18BF08C017CD
:1001B000D10759F06991D601ED91FC910190F08140
:1001C000E02DC6010995892B79F7C501DF91CF9103
:1001D0001F910F91FF90EF90DF90CF90BF90AF9065
:1001E0000895FC01538D448D252F30E0842F90E03D
:1001F000821B930B541710F0CF9608950197089522
:10020000FC01918D828D981761F0A28DAE0FBF2FEA
:10021000B11D5D968C91928D9F5F9F73928F90E040
:1002200008958FEF9FEF0895FC01918D828D9817AF
:1002300031F0828DE80FF11D858D90E008958FEFEC
:100240009FEF0895FC01918D228D892F90E0805CB5
:100250009F4F821B91098F73992708958DE691E036
:100260000E94220121E0892B09F420E0822F0895C9
:1002700080E090E0892B29F00E942E0181110C94DE
:1002800000000895FC01A48DA80FB92FB11DA35A39
:10029000BF4F2C91848D90E001968F739927848FA6
:1002A000A689B7892C93A089B1898C9183708064C9
:1002B0008C93938D848D981306C00288F389E02D6A
:1002C00080818F7D80830895EF92FF920F931F931B
:1002D000CF93DF93EC0181E0888F9B8D8C8D9813F9
:1002E0001AC0E889F989808185FF15C09FB7F89405
:1002F000EE89FF896083E889F98980818370806451
:1003000080839FBF81E090E0DF91CF911F910F919B
:10031000FF90EF900895F62E0B8D10E00F5F1F4FAA
:100320000F731127E02E8C8D8E110CC00FB607FCB9
:10033000FACFE889F989808185FFF5CFCE010E9447
:100340004201F1CFEB8DEC0FFD2FF11DE35AFF4F72
:10035000F0829FB7F8940B8FEA89FB8980818062D5
:10036000CFCFCF93DF93EC01888D8823B9F0AA8992
:10037000BB89E889F9898C9185FD03C0808186FD60
:100380000DC00FB607FCF7CF8C9185FFF2CF8081AF
:1003900085FFEDCFCE010E944201E9CFDF91CF91E1
:1003A0000895CF93DF9390E0FC01E255FF4F249135
:1003B00086569F4FFC0184918823D1F090E0880FEE
:1003C000991FFC01E859FF4FA591B491FC01EE582B
:1003D000FF4FC591D491623071F49FB7F8943C916E
:1003E000822F809583238C93E8812E2B28839FBFB7
:1003F000DF91CF9108958FB7F894EC912E2B2C9329
:100400008FBFF6CF8E50806480937C0080917A00FD
:10041000806480937A0080917A0086FDFCCF809181
:1004200078009091790008953FB7F8948091650124
:1004300090916601A0916701B091680126B5A89BD3
:1004400005C02F3F19F00196A11DB11D3FBFBA2F66
:10045000A92F982F8827BC01CD01620F711D811D26
:10046000911D42E0660F771F881F991F4A95D1F7AB
:1004700008958F929F92AF92BF92CF92DF92EF92A8
:10048000FF924B015C010E9414026B017C010E94EF
:1004900014026C197D098E099F09683E734081051D
:1004A0009105A8F321E0821A9108A108B10888EE0D
:1004B000C80E83E0D81EE11CF11C81149104A10434
:1004C000B10429F7FF90EF90DF90CF90BF90AF90ED
:1004D0009F908F9008958F929F92AF92BF92EF92CC
:1004E000FF920F931F93CF93DF93CDB7DEB7C05426
:1004F000D1400FB6F894DEBF0FBECDBF2FB7F89432
:100500008091690190916A01A0916B01B0916C0199
:100510002FBF409113025091140260911502709107
:1005200016028C019D01041B150B260B370BB9011C
:10053000A801403D574061057105A0F480911B0260
:10054000C05CDE4F0FB6F894DEBF0FBECDBFDF91AB
:10055000CF911F910F91FF90EF90BF90AF909F9020
:100560008F9008958093130290931402A093150224
:10057000B093160210920E0210920D0210920C020D
:1005800010920B0210920A0262E080910F020E9408
:10059000D10161E070E080E090E00E94390261E00A
:1005A00080910F020E94D10180910F0290E0FC0126
:1005B000E458FF4F2491FC01E255FF4F3491FC01B8
:1005C000E656FF4FE491EE23D9F0222359F0233071
:1005D00009F44BC008F03EC0213009F44CC0223071
:1005E00009F44DC0F0E0EE0FFF1FEE58FF4FA5914C
:1005F000B4918FB7F894EC9130953E233C938FBF24
:10060000809110028551823008F046C08BE291E162
:100610000197F1F762E080910F020E94D101809171
:100620001C0290E08230910538F0880F991F880FE6
:10063000991F05970197F1F7F89480E00E948C00CC
:100640006F3F7F4F8F4F9F4F71F510921B02789431
:1006500080E076CF2730B1F02830D1F0243009F097
:10066000C1CF809180008F7D03C0809180008F7703
:1006700080938000B7CF84B58F7784BDB3CF84B526
:100680008F7DFBCF8091B0008F778093B000AACF91
:100690008091B0008F7DF9CF64E170E080E090E060
:1006A0000E943902B7CF81E00E948C006F3F7F4FDC
:1006B0008F4F9F4F51F2CE0101967C015E019FEB5F
:1006C000A91A9EEFB90A870180E00E948C00F80108
:1006D000608371838283938381E00E948C00F801A0
:1006E0006483758386839783085F1F4FA016B106C6
:1006F00059F7789430E020E0F70180809180A28063
:10070000B3804481558166817781FFEF8F169F0604
:10071000AF06BF0631F04F3F0FEF5007600770077D
:1007200019F410921B0294CFF90183E0F595E79537
:100730008A95E1F7E65FFD4F8081880F8416950664
:10074000A606B70618F180832F5F3F4F18E0E10E31
:10075000F11C2832310581F640910E0220910A02E7
:1007600080910B02280F3327331F80910C02280F32
:10077000311D80910D02820F932F911D99274817EB
:10078000190679F681E080931B02DACE8160DBCF17
:10079000FC0101900020E9F73197AF01481B590B8C
:1007A000BC018DE691E00C94C4008F929F92AF92B1
:1007B000BF920F931F93CF93DF93CDB7DEB7A1976F
:1007C0000FB6F894DEBF0FBECDBF19A2423008F4B9
:1007D0004AE08E010F5D1F4F842E912CB12CA12C6D
:1007E000A50194010E94480AE62FB901CA01EA3026
:1007F000F4F4E05DD801EE938D01232B242B252BFF
:1008000079F790E080E0109719F0CD010E94C803BD
:10081000A1960FB6F894DEBF0FBECDBFDF91CF918A
:100820001F910F91BF90AF909F908F900895E95CBA
:10083000E1CF4F925F926F927F928F929F92AF9291
:10084000BF92CF92DF92EF92FF926B017C01AC01DD
:100850009B010E94430A8823C1F088E191E00E9435
:10086000C8037C0184E291E00E94C8038E0D9F1DA5
:10087000FF90EF90DF90CF90BF90AF909F908F90C0
:100880007F906F905F904F90089546015701E894D4
:10089000B7F82FEF3FEF4FE75FE7C501B4010E94C4
:1008A000430A81110DC02FEF3FEF4FE75FE7C5010E
:1008B000B4010E94470818161CF48CE191E0CFCFD8
:1008C0002FEF3FEF4FE75FE4C701B6010E943E0AFA
:1008D00018161CF480E291E0C2CF2FEF3FEF4FE7F4
:1008E0005FECC701B6010E94470887FDF3CF20E007
:1008F00030E0A901C701B6010E944708B12CA12C24
:1009000087FF0AC06DE28DE691E00E9464015C0100
:10091000F7FAF094F7F8F0942AE037ED43EA5BE356
:10092000C701B6010E94A3092B013C010E940F0AD6
:100930006B017C010E944C089B01AC01C301B20118
:100940000E94A2092B013C014AE0C701B6010E94A6
:10095000D5037C01EA0CFB1C6EE28DE691E00E945F
:100960006401E80EF91E20E030E040E251E4C301EA
:10097000B2010E94AD082B013C010E940F0A4B01FD
:10098000B12CA12C4AE0C501B4010E94D503E80EA8
:10099000F91EC501B4010E944C089B01AC01C301C2
:1009A000B2010E94A20920E030E040E251E40E943E
:1009B000AD080E940F0A90E080E04AE00E94D50353
:1009C000E80EF91E4FCFFC0180819181009711F054
:1009D0000C940C0B0895EF92FF920F931F93CF93FB
:1009E000DF93EC017B01FB0101900020E9F73197D7
:1009F0008F01061B170B88819981009729F02A81A6
:100A00003B812017310788F4B8016F5F7F4F0E9448
:100A1000950B0097B9F0998388831B830A832C81F7
:100A20003D81232B11F4FC0110821D830C83B7013F
:100A300088819981DF91CF911F910F91FF90EF9065
:100A40000C94640C88819981009711F00E940C0B22
:100A5000198218821D821C821B821A82DF91CF911B
:100A60001F910F91FF90EF900895CF92DF92EF9238
:100A7000FF92CF93DF936A017B01FC0124813581D2
:100A8000232B59F1C081D18167E271E0CE010E9430
:100A90005B0C892B71F48BE291E00E94C803C701C3
:100AA000B601DF91CF91FF90EF90DF90CF900C9443
:100AB000190460E371E0CE010E945B0C892B19F4EC
:100AC00084E391E0EACF69E371E0CE010E945B0C20
:100AD000892B19F481E491E0E0CF8AE491E0DDCF45
:100AE0001F920F920FB60F9211242F933F934F93A3
:100AF0005F936F937F938F939F93AF93BF93EF9386
:100B0000FF938DE691E00E944201FF91EF91BF912A
:100B1000AF919F918F917F916F915F914F913F9195
:100B20002F910F900FBE0F901F9018951F920F924C
:100B30000FB60F9211242F938F939F93EF93FF93F0
:100B4000E0917D01F0917E018081E0918301F0913F
:100B5000840182FD1BC09081809186018F5F8F731D
:100B600020918701821741F0E0918601F0E0E3597E
:100B7000FE4F958F80938601FF91EF919F918F910A
:100B80002F910F900FBE0F901F9018958081F4CF7A
:100B90001F920F920FB60F9211242F933F938F93B2
:100BA0009F93AF93BF938091690190916A01A09147
:100BB0006B01B0916C013091640123E0230F2D375C
:100BC00058F50196A11DB11D209364018093690120
:100BD00090936A01A0936B01B0936C0180916501C1
:100BE00090916601A0916701B09168010196A11DE5
:100BF000B11D8093650190936601A0936701B09346
:100C00006801BF91AF919F918F913F912F910F906C
:100C10000FBE0F901F90189526E8230F0296A11D76
:100C2000B11DD2CFEDE6F1E01382128288EE93E09F
:100C3000A0E0B0E084839583A683B7838AE091E047
:100C40009183808385EC90E09587848784EC90E0A5
:100C50009787868780EC90E0918B808B81EC90E089
:100C6000938B828B82EC90E0958B848B86EC90E06A
:100C7000978B868B118E128E138E148EAAE0B2E0A3
:100C800082E015968C9315978BE016968C931697A9
:100C9000E0EBF0E0E4911796EC931797ECE9F0E0C5
:100CA000E4911896EC93189740E85EE360E070E0FA
:100CB0001D964D935D936D937C9350970895CF93BC
:100CC000DF93CDB7DEB72A970FB6F894DEBF0FBE1D
:100CD000CDBF789484B5826084BD84B5816084BDC5
:100CE00085B5826085BD85B5816085BD80916E00CA
:100CF000816080936E0010928100809181008260FB
:100D00008093810080918100816080938100809137
:100D100080008160809380008091B1008460809326
:100D2000B1008091B00081608093B00080917A0022
:100D3000846080937A0080917A00826080937A0048
:100D400080917A00816080937A0080917A00806837
:100D500080937A001092C100E0917D01F0917E01B4
:100D600082E08083E0917901F0917A011082E09134
:100D70007B01F0917C018FEC808310928501E091E2
:100D80008101F091820186E08083E0917F01F09102
:100D90008001808180618083E0917F01F0918001FA
:100DA000808188608083E0917F01F0918001808163
:100DB00080688083E0917F01F091800180818F7D48
:100DC000808362E080910F020E94D1012FB7F894D6
:100DD0008091690190916A01A0916B01B0916C01C1
:100DE0002FBF805D9740A109B109809313029093B2
:100DF0001402A0931502B093160287E380931C029D
:100E000030E0232E30E0332E8FE00E940202BC013E
:100E1000990F880B990B0E944E086F8378878987FA
:100E20009A878EE00E940202BC01990F880B990BF1
:100E30000E944E082B013C010E946B02882349F05E
:100E4000809110028B3028F08D3050F08551823027
:100E5000C0F1812C912C20ECA22E2FE7B22E1EC0C7
:100E600060910B0270E090E080E00E944E082DEC53
:100E70003CEC4CEC5DE30E94AD086B017C016091A1
:100E80000A0270E090E080E00E944E089B01AC01F5
:100E9000C701B6010E94A3094B015C010E946B02CD
:100EA000882341F0809110028C3009F4CBC0D8F433
:100EB0008B3091F1C12CD12C80ECE82E8FE7F82EED
:100EC00055C060910A0270910B027627672776273A
:100ED00090E080E00E944C082DEC3CEC4CEC5DE393
:100EE0000E94AD08D9CF8551823020F710910C02B5
:100EF000612F70E0762F662766277F7780910D023D
:100F0000682B90E080E00E944C082DEC3CEC4CEC0F
:100F10005DE30E94AD08B2C060910C0270E090E009
:100F200080E00E944C086B017C0110910D0217FFBC
:100F30000AC0AC019B0160E070E080E89FEB0E947A
:100F4000A2096B017C011F70612F70E090E080E0CE
:100F50000E944E082DEC3CEC4CEC5DE30E94AD0889
:100F6000A70196010E94A3096B017C011A821982D4
:100F70001C821B821E821D8267E271E0CE010196F7
:100F80000E94EB04B301A201CE0101960E94350537
:100F9000CE0101960E94E3041A8219821C821B82F0
:100FA0001E821D8260E371E0CE0101960E94EB0477
:100FB0004F81588569857A85CE0101960E94350555
:100FC000CE0101960E94E3041A8219821C821B82C0
:100FD0001E821D8267E571E0CE0101960E94EB043E
:100FE000B701A601CE0101960E943505CE010196FA
:100FF0000E94E3041A8219821C821B821E821D82B7
:1010000069E371E0CE0101960E94EB04B501A401F1
:10101000CE0101960E943505CE0101960E94E3049F
:1010200060E777E180E090E00E943902211431040A
:1010300009F4EACE0E942E01882309F4E5CE0E942D
:101040000000E2CE10910C02612F70E090E080E091
:101050000E944C086B017C0160910D026F7070E082
:1010600090E080E00E944E082DEC3CEC4CEC5DE3FF
:101070000E94AD08A70196010E94A3096B017C01A3
:1010800017FF74CFF7FAF094F7F8F0946FCF0E943F
:10109000890808F481E00895E89409C097FB3EF4BC
:1010A00090958095709561957F4F8F4F9F4F9923B5
:1010B000A9F0F92F96E9BB279395F6958795779533
:1010C0006795B795F111F8CFFAF4BB0F11F460FFF3
:1010D0001BC06F5F7F4F8F4F9F4F16C0882311F04B
:1010E00096E911C0772321F09EE8872F762F05C05F
:1010F000662371F096E8862F70E060E02AF09A95FA
:10110000660F771F881FDAF7880F9695879597F9EE
:101110000895990F0008550FAA0BE0E8FEEF161688
:101120001706E807F907C0F012161306E407F507DB
:1011300098F0621B730B840B950B39F40A2661F04F
:10114000232B242B252B21F408950A2609F4A140F2
:10115000A6958FEF811D811D08950E94C0080C94F3
:1011600031090E94230938F00E942A0920F09523B2
:1011700011F00C941A090C94200911240C9465099F
:101180000E94420970F3959FC1F3950F50E0551FDF
:10119000629FF001729FBB27F00DB11D639FAA27CC
:1011A000F00DB11DAA1F649F6627B00DA11D661F1B
:1011B000829F2227B00DA11D621F739FB00DA11D3C
:1011C000621F839FA00D611D221F749F3327A00DF6
:1011D000611D231F849F600D211D822F762F6A2F92
:1011E00011249F5750409AF0F1F088234AF0EE0FF7
:1011F000FF1FBB1F661F771F881F91505040A9F724
:101200009E3F510580F00C941A090C9465095F3FCC
:10121000E4F3983ED4F3869577956795B795F7955F
:10122000E7959F5FC1F7FE2B880F911D96958795D7
:1012300097F9089597F99F6780E870E060E0089556
:101240009FEF80EC089500240A94161617061806DE
:101250000906089500240A941216130614060506BA
:101260000895092E0394000C11F4882352F0BB0F4B
:1012700040F4BF2B11F460FF04C06F5F7F4F8F4FAE
:101280009F4F089557FD9058440F551F59F05F3FE9
:1012900071F04795880F97FB991F61F09F3F79F098
:1012A00087950895121613061406551FF2CF46951A
:1012B000F1DF08C0161617061806991FF1CF86959C
:1012C0007105610508940895E894BB276627772780
:1012D000CB0197F908952F923F924F925F926F92B0
:1012E0007F928F929F92AF92BF92CF92DF92EF92B6
:1012F000FF920F931F93CF93DF93CDB7DEB7CA1B37
:10130000DB0B0FB6F894DEBF0FBECDBF09942A8861
:10131000398848885F846E847D848C849B84AA8409
:10132000B984C884DF80EE80FD800C811B81AA8196
:10133000B981CE0FD11D0FB6F894DEBF0FBECDBF61
:10134000ED0108955058BB27AA270E94BA090C94B2
:1013500031090E94230938F00E942A0920F039F44B
:101360009F3F19F426F40C9420090EF4E095E7FB56
:101370000C941A09E92F0E94420958F3BA17620720
:1013800073078407950720F079F4A6F50C94640997
:101390000EF4E0950B2EBA2FA02D0B01B901900190
:1013A0000C01CA01A0011124FF27591B99F0593FD4
:1013B00050F4503E68F11A16F040A22F232F342F1C
:1013C0004427585FF3CF469537952795A795F0406A
:1013D0005395C9F77EF41F16BA0B620B730B840B7F
:1013E000BAF09150A1F0FF0FBB1F661F771F881F37
:1013F000C2F70EC0BA0F621F731F841F48F487958F
:1014000077956795B795F7959E3F08F0B0CF939580
:10141000880F08F09927EE0F9795879508950E94F9
:101420004A0988F09F5798F0B92F9927B751B0F023
:10143000E1F0660F771F881F991F1AF0BA95C9F758
:1014400014C0B13091F00E946409B1E008950C9489
:101450006409672F782F8827B85F39F0B93FCCF33C
:10146000869577956795B395D9F73EF490958095D5
:10147000709561957F4F8F4F9F4F08950E94890807
:1014800008F48FEF08950E948908880B990B08953E
:10149000A1E21A2EAA1BBB1BFD010DC0AA1FBB1F78
:1014A000EE1FFF1FA217B307E407F50720F0A21BEA
:1014B000B30BE40BF50B661F771F881F991F1A9457
:1014C00069F760957095809590959B01AC01BD0181
:1014D000CF010895EE0FFF1F0590F491E02D0994C0
:1014E0000F931F93CF93DF938230910510F482E026
:1014F00090E0E0911F02F091200230E020E0B0E0A7
:10150000A0E0309799F42115310509F44AC0281B51
:10151000390B24303105D8F58A819B81611571051D
:1015200089F1FB0193838283FE0111C040815181C7
:101530000281138148175907E0F04817590799F4B9
:10154000109761F012960C93129713961C93329693
:10155000CF01DF91CF911F910F91089500931F024A
:1015600010932002F4CF2115310551F04217530793
:1015700038F0A901DB019A01BD01DF01F801C1CFFB
:10158000EF01F9CF9093200280931F02CDCFFE018F
:10159000E20FF31F819391932250310939832883FD
:1015A000D7CF20911D0230911E02232B41F42091B0
:1015B00002013091030130931E0220931D022091FD
:1015C0000001309101012115310541F42DB73EB7DD
:1015D0004091040150910501241B350BE0911D023F
:1015E000F0911E02E217F307A0F42E1B3F0B281701
:1015F000390778F0AC014E5F5F4F2417350748F08C
:101600004E0F5F1F50931E0240931D0281939193D2
:101610009FCFF0E0E0E09CCFCF93DF930097E9F01D
:10162000FC01329713821282A0911F02B091200216
:10163000ED0130E020E01097A1F420813181820F8C
:10164000931F20911D0230911E022817390709F0BF
:1016500061C0F0931E02E0931D02DF91CF910895C7
:10166000EA01CE17DF07E8F54A815B819E0141154B
:101670005105B1F7E901FB83EA8349915991C40F00
:10168000D51FEC17FD0761F4808191810296840FCC
:10169000951FE90199838883828193819B838A8343
:1016A000F0E0E0E012968D919C9113970097B9F5C8
:1016B0002D913C911197CD010296820F931F20919D
:1016C0001D0230911E022817390739F6309751F55F
:1016D0001092200210921F02B0931E02A0931D02CE
:1016E000BCCFD383C28340815181840F951FC8171B
:1016F000D90761F44E5F5F4F88819981480F591F68
:10170000518340838A819B81938382832115310594
:1017100009F0B0CFF0932002E0931F029ECFFD01AD
:10172000DC01C0CF13821282D7CFB0E0A0E0EBE99A
:10173000FBE00C946D098C01009751F4CB010E94E1
:10174000700A8C01C801CDB7DEB7E0E10C948909BD
:10175000FC01E60FF71F9C0122503109E217F30745
:1017600008F49DC0D901CD91DC911197C617D70718
:1017700098F0C530D10530F3CE010497861797074E
:1017800008F3C61BD70B2297C193D1936D937C931B
:10179000CF010E940C0BD6CF5B01AC1ABD0A4C01E5
:1017A0008C0E9D1EA0911F02B0912002512C412C45
:1017B000F12CE12C109731F580911D0290911E02C1
:1017C0008815990509F05CC04616570608F058C000
:1017D0008091000190910101009741F48DB79EB76F
:1017E0004091040150910501841B950BE817F907FE
:1017F00008F055C0F0931E02E0931D02F9017183B9
:101800006083A0CF8D919C91119712966C90129746
:1018100013967C901397A815B90559F56C0142E011
:10182000C40ED11CCA14DB0420F1AC014A195B09B7
:10183000DA011296159780F0628273825183408399
:10184000D9016D937C93E114F10471F0D7011396E3
:10185000FC93EE93129776CF22968C0F9D1FF90181
:1018600091838083F301EFCFF0932002E0931F0276
:1018700069CF4816590608F42C017D01D3019ACF8F
:10188000CB010E94700A7C01009749F0AE01B801BB
:101890000E94520CC8010E940C0B870153CF10E02C
:1018A00000E050CFFB01DC0102C001900D924150DD
:1018B0005040D8F70895FB01DC018D91019080190B
:1018C0000110D9F3990B0895FB01DC0101900D92F1
:0A18D0000020E1F70895F894FFCF1F
:1018DA00000021028000000000006401C400F10041
:1018EA00B1012201000114016E616E00696E660089
:1018FA006F7666000D0A0047617300476173200026
:10190A004C4452004C757A200048756D65646164D8
:10191A000048756D65646164200054656D70657278
:10192A006174757261200054656D706572617475B9
:04193A0072610000D6
:00000001FF
